:030000000201B842
:0C01B800787FE4F6D8FD7581450201FF58
:0805FE007FBFDFEFF7FBFDFEFC
:10053F00C2B6C2B5E4FEEFC4131313540124FF92E5
:10054F00B4EF25E0FFD2B60000C2B60EBE08E7D268
:05055F00B50000C2B56B
:010564002274
:08000300EF9005FE93F5802249
:10056500AE05AD07AF06120003E4FF12053FAF0568
:0F0575007401A807088002C333D8FCFF02053FBA
:0604E8008B398A3A893BC2
:1004EE00E4FDFF12053FAF05120003AB39AA3AA98E
:1004FE003B8D82758300120100FF12053FE4FF124F
:06050E00053F0DBD08E0F1
:0105140022C4
:0805F5007F027EEFDEFEDFFC59
:0105FD0022DB
:1005B000AD07AC06ED1DAE0470011C4E60051205C2
:0405C000F580F122AF
:1005D800438901758AE0758CB1D28CD2A9D2AF2239
:03000B000203EEFF
:1003EE00C0E0C0F0C083C082C0D075D000C000C0D5
:1003FE0001C002C003C004C005C006C007758AE074
:10040E00758CB11202C68F2E0508D007D006D00506
:10041E00D004D003D002D001D000D0D0D082D0836F
:05042E00D0F0D0E03227
:0305C400014503EB
:1002C600753C00753D01120244E5436066E4F54362
:1002D600E54464016005E544B402057545018035D1
:1002E600E54464046005E544B408057545038025C6
:1002F600E54464076005E544B40B057545028015C1
:10030600E544640D6005E544B40E05E4F545800555
:10031600E4F53CF53DE53D453C6018752FC8AF2F2B
:10032600152FEF600EB295E54590060693FF120570
:050336009E80EBAF45C5
:01033B00229F
:1002440075900FE590640F60781205E8E590640FEF
:10025400606F75430175900FAF90EF24F560102423
:10026400FE601114601324077012E4F544800D75C8
:100274004401800875440280037544037590F012AC
:1002840005E8AF90EF2450601124E0601124F06081
:100294001124707013854444800E7404800674081D
:1002A4008002740C2544F544C3E53E648094B25046
:1002B4000DE59064F060071205E8053E80EAE4F578
:0102C4003EFB
:0102C5002216
:0C05E8007F017E267D82DDFEDEFADFF65C
:0105F40022E4
:1005840053890F438901758CD8758AEF75A8821237
:0705940005D812000E80FBE8
:0806060020181C301040802B6D
:1005C70008300000000000000000012E0301091997
:03059B00E493FFE7
:10059E00EF75F003A4FFAEF0EF1F70011E144E7046
:0105AE00F755
:0105AF002229
:100478001203A17C007D0812012D8D2C1203A17C92
:10048800007D0812012D8D2DE4F539E539C3952835
:100498005019740A2539F8E6B52C0C74192539F861
:0B04A800E6B52D03120478053980E052
:0104B3002226
:10051500E4FF740A2FF876FF74192FF876FF0FBFE2
:100525000FF0752802752901752B03E4F50B751A73
:0A05350002750A017519020204782C
:100433007F087830E4F608DFFCE4FFEFC39528502B
:100443002474192FF8E62430F8C000E6FE740A2F4E
:10045300F8E6FD7401A805088002C333D8FC4ED02A
:1004630000F60F80D67B007A0079301204E8AD2DB8
:05047300AF2C0205653D
:10033C00AF28EFD39400401B74182FF8E6FE741905
:10034C002FF8A60674092FF8E6FE740A2FF8A606F5
:10035C001F80DFE52B14600E14600F146010240353
:10036C00700E1519800A05198006150A8002050AF7
:10037C00E52C650A701EE52DB51919752FC8AF2F20
:10038C00152FEF600AB29590060A12059B80EF05B7
:04039C0028120478A7
:0103A000223A
:1004B400EF14601414601914602024037025E52BD4
:1004C4006401601FE4F52B22E52B6017752B0122D4
:1004D400E52B6403600D752B0222E52B6402600397
:0404E400752B03224F
:10000E00E4F538120515752FC8AF2F152FEF600ABE
:10001E00B29590060B12059B80EFE5297003020046
:10002E00FFAF2E1204B4E508C395094006E4F508A7
:10003E0012033CD3E50A64809487501BC3E50A641F
:10004E008094804012D3E519648094875009C3E5EB
:10005E001964809480500CE4F529752A01750919EC
:10006E00754503753804E538D39528503B7409253A
:10007E0038F8E6650A702D74182538F8E66519709B
:10008E0023752FC8AF2F152FEF600DB29590060C6C
:10009E00E493FF12059E80ECE4F529752A0175099B
:1000AE0019754503053880BEE528C3940F403C7F83
:1000BE00F47E011205B012051574FB2509F50975BC
:1000CE004503052AE52AD39405401D752FC8AF2F89
:1000DE00152FEF600DB29590060DE493FF12059E5D
:1000EE0080EC752A01750919E4F508120433020033
:0100FE0028D9
:0100FF0022DE
:1001C400020584E493A3F8E493A34003F68001F2C8
:1001D40008DFF48029E493A3F85407240CC8C3333C
:1001E400C4540F4420C8834004F456800146F6DF0B
:1001F400E4800B01020408102040809005C4E47ED2
:10020400019360BCA3FF543F30E509541FFEE493FF
:10021400A360010ECF54C025E060A840B8E493A3C6
:10022400FAE493A3F8E493A3C8C582C8CAC583CAF1
:10023400F0A3C8C582C8CAC583CADFE9DEE780BEA9
:0105D7000023
:10010000BB010CE58229F582E5833AF583E02250B4
:1001100006E92582F8E622BBFE06E92582F8E222FE
:0D012000E58229F582E5833AF583E4932218
:10012D00C2D5EC30E709B2D5E4C39DFDE49CFCEEED
:10013D0030E715B2D5E4C39FFFE49EFE120163C301
:10014D00E49DFDE49CFC800312016330D507C3E4FC
:06015D009FFFE49EFE225C
:1003A100AC3FAD40AE41AF427810EC4D4E4F7004C2
:1003B1007CA57DA5C3EC13FCED13FDEE13FEEF133D
:1003C100FF5010EC64CCFCED644CFDEE644EFEEF8E
:1003D10064CEFFD8DF8C3F8D408E418F42EE547F3B
:0D03E100FE228E3F8F4074A5F541F54222AB
:10016300BC000BBE0029EF8DF084FFADF022E4CC80
:10017300F875F008EF2FFFEE33FEEC33FCEE9DEC49
:10018300984005FCEE9DFE0FD5F0E9E4CEFD22ED8F
:10019300F8F5F0EE8420D21CFEADF075F008EF2FD9
:1001A300FFED33FD4007985006D5F0F222C398FDCA
:0501B3000FD5F0EA2267
:00000001FF
